{
	"data": {
		"bytecode": {
			"linkReferences": {},
			"object": "60806040525f600455348015610013575f80fd5b50335f806101000a81548173ffffffffffffffffffffffffffffffffffffffff021916908373ffffffffffffffffffffffffffffffffffffffff16021790555061139c806100605f395ff3fe608060405260043610610058575f3560e01c80630775ff56146100635780633226b4321461008b57806388cfa590146100b3578063c1cfb99a146100cf578063ec4a503a146100f9578063efe0fb2e146101235761005f565b3661005f57005b5f80fd5b34801561006e575f80fd5b5061008960048036038101906100849190610ac6565b610167565b005b348015610096575f80fd5b506100b160048036038101906100ac9190610b4e565b6103f4565b005b6100cd60048036038101906100c89190610bd3565b610507565b005b3480156100da575f80fd5b506100e3610798565b6040516100f09190610c32565b60405180910390f35b348015610104575f80fd5b5061010d61079f565b60405161011a9190610c32565b60405180910390f35b34801561012e575f80fd5b5061014960048036038101906101449190610b4e565b6107a5565b60405161015e99989796959493929190610cee565b60405180910390f35b5f8054906101000a900473ffffffffffffffffffffffffffffffffffffffff1673ffffffffffffffffffffffffffffffffffffffff163373ffffffffffffffffffffffffffffffffffffffff16146101f4576040517f08c379a00000000000000000000000000000000000000000000000000000000081526004016101eb90610dd1565b60405180910390fd5b5f73ffffffffffffffffffffffffffffffffffffffff163373ffffffffffffffffffffffffffffffffffffffff160361022b575f80fd5b60045f81548092919061023d90610e1c565b9190505550600160035f6101000a81548160ff02191690831515021790555060405180610120016040528060045481526020018481526020018381526020018281526020015f81526020015f815260200160035f9054906101000a900460ff16151581526020013373ffffffffffffffffffffffffffffffffffffffff1681526020015f73ffffffffffffffffffffffffffffffffffffffff1681525060015f60045481526020019081526020015f205f820151815f0155602082015181600101908161030a919061105d565b506040820151816002019081610320919061105d565b50606082015181600301556080820151816004015560a0820151816005015560c0820151816006015f6101000a81548160ff02191690831515021790555060e08201518160060160016101000a81548173ffffffffffffffffffffffffffffffffffffffff021916908373ffffffffffffffffffffffffffffffffffffffff160217905550610100820151816007015f6101000a81548173ffffffffffffffffffffffffffffffffffffffff021916908373ffffffffffffffffffffffffffffffffffffffff160217905550905050505050565b8080600454101561043a576040517f08c379a000000000000000000000000000000000000000000000000000000000815260040161043190611176565b60405180910390fd5b815f151560015f8381526020019081526020015f206006015f9054906101000a900460ff161515146104a1576040517f08c379a0000000000000000000000000000000000000000000000000000000008152600401610498906111de565b60405180910390fd5b60015f8481526020019081526020015f2060050154421115610502576001805f8581526020019081526020015f206006015f6101000a81548160ff0219169083151502179055505f60015f8581526020019081526020015f20600501819055505b505050565b8180600454101561054d576040517f08c379a000000000000000000000000000000000000000000000000000000000815260040161054490611176565b60405180910390fd5b826001151560015f8381526020019081526020015f206006015f9054906101000a900460ff161515146105b5576040517f08c379a00000000000000000000000000000000000000000000000000000000081526004016105ac90611246565b60405180910390fd5b83838060015f8481526020019081526020015f20600301546105d79190611264565b471015610619576040517f08c379a000000000000000000000000000000000000000000000000000000000815260040161061090611315565b60405180910390fd5b5f73ffffffffffffffffffffffffffffffffffffffff163373ffffffffffffffffffffffffffffffffffffffff1603610650575f80fd5b5f60015f8881526020019081526020015f206006015f6101000a81548160ff0219169083151502179055504260015f8881526020019081526020015f206004018190555062015180856106a39190611264565b60015f8881526020019081526020015f20600401546106c29190611333565b60015f8881526020019081526020015f20600501819055508660015f8881526020019081526020015f206007015f6101000a81548173ffffffffffffffffffffffffffffffffffffffff021916908373ffffffffffffffffffffffffffffffffffffffff1602179055508673ffffffffffffffffffffffffffffffffffffffff166108fc8660015f8a81526020019081526020015f20600301546107669190611264565b90811502906040515f60405180830381858888f1935050505015801561078e573d5f803e3d5ffd5b5050505050505050565b5f47905090565b60045481565b6001602052805f5260405f205f91509050805f0154908060010180546107ca90610e90565b80601f01602080910402602001604051908101604052809291908181526020018280546107f690610e90565b80156108415780601f1061081857610100808354040283529160200191610841565b820191905f5260205f20905b81548152906001019060200180831161082457829003601f168201915b50505050509080600201805461085690610e90565b80601f016020809104026020016040519081016040528092919081815260200182805461088290610e90565b80156108cd5780601f106108a4576101008083540402835291602001916108cd565b820191905f5260205f20905b8154815290600101906020018083116108b057829003601f168201915b505050505090806003015490806004015490806005015490806006015f9054906101000a900460ff16908060060160019054906101000a900473ffffffffffffffffffffffffffffffffffffffff1690806007015f9054906101000a900473ffffffffffffffffffffffffffffffffffffffff16905089565b5f604051905090565b5f80fd5b5f80fd5b5f80fd5b5f80fd5b5f601f19601f8301169050919050565b7f4e487b71000000000000000000000000000000000000000000000000000000005f52604160045260245ffd5b6109a58261095f565b810181811067ffffffffffffffff821117156109c4576109c361096f565b5b80604052505050565b5f6109d6610946565b90506109e2828261099c565b919050565b5f67ffffffffffffffff821115610a0157610a0061096f565b5b610a0a8261095f565b9050602081019050919050565b828183375f83830152505050565b5f610a37610a32846109e7565b6109cd565b905082815260208101848484011115610a5357610a5261095b565b5b610a5e848285610a17565b509392505050565b5f82601f830112610a7a57610a79610957565b5b8135610a8a848260208601610a25565b91505092915050565b5f819050919050565b610aa581610a93565b8114610aaf575f80fd5b50565b5f81359050610ac081610a9c565b92915050565b5f805f60608486031215610add57610adc61094f565b5b5f84013567ffffffffffffffff811115610afa57610af9610953565b5b610b0686828701610a66565b935050602084013567ffffffffffffffff811115610b2757610b26610953565b5b610b3386828701610a66565b9250506040610b4486828701610ab2565b9150509250925092565b5f60208284031215610b6357610b6261094f565b5b5f610b7084828501610ab2565b91505092915050565b5f73ffffffffffffffffffffffffffffffffffffffff82169050919050565b5f610ba282610b79565b9050919050565b610bb281610b98565b8114610bbc575f80fd5b50565b5f81359050610bcd81610ba9565b92915050565b5f805f60608486031215610bea57610be961094f565b5b5f610bf786828701610bbf565b9350506020610c0886828701610ab2565b9250506040610c1986828701610ab2565b9150509250925092565b610c2c81610a93565b82525050565b5f602082019050610c455f830184610c23565b92915050565b5f81519050919050565b5f82825260208201905092915050565b5f5b83811015610c82578082015181840152602081019050610c67565b5f8484015250505050565b5f610c9782610c4b565b610ca18185610c55565b9350610cb1818560208601610c65565b610cba8161095f565b840191505092915050565b5f8115159050919050565b610cd981610cc5565b82525050565b610ce881610b98565b82525050565b5f61012082019050610d025f83018c610c23565b8181036020830152610d14818b610c8d565b90508181036040830152610d28818a610c8d565b9050610d376060830189610c23565b610d446080830188610c23565b610d5160a0830187610c23565b610d5e60c0830186610cd0565b610d6b60e0830185610cdf565b610d79610100830184610cdf565b9a9950505050505050505050565b7f4f6e6c79206f776e65722063616e2061636365737320697400000000000000005f82015250565b5f610dbb601883610c55565b9150610dc682610d87565b602082019050919050565b5f6020820190508181035f830152610de881610daf565b9050919050565b7f4e487b71000000000000000000000000000000000000000000000000000000005f52601160045260245ffd5b5f610e2682610a93565b91507fffffffffffffffffffffffffffffffffffffffffffffffffffffffffffffffff8203610e5857610e57610def565b5b600182019050919050565b7f4e487b71000000000000000000000000000000000000000000000000000000005f52602260045260245ffd5b5f6002820490506001821680610ea757607f821691505b602082108103610eba57610eb9610e63565b5b50919050565b5f819050815f5260205f209050919050565b5f6020601f8301049050919050565b5f82821b905092915050565b5f60088302610f1c7fffffffffffffffffffffffffffffffffffffffffffffffffffffffffffffffff82610ee1565b610f268683610ee1565b95508019841693508086168417925050509392505050565b5f819050919050565b5f610f61610f5c610f5784610a93565b610f3e565b610a93565b9050919050565b5f819050919050565b610f7a83610f47565b610f8e610f8682610f68565b848454610eed565b825550505050565b5f90565b610fa2610f96565b610fad818484610f71565b505050565b5b81811015610fd057610fc55f82610f9a565b600181019050610fb3565b5050565b601f82111561101557610fe681610ec0565b610fef84610ed2565b81016020851015610ffe578190505b61101261100a85610ed2565b830182610fb2565b50505b505050565b5f82821c905092915050565b5f6110355f198460080261101a565b1980831691505092915050565b5f61104d8383611026565b9150826002028217905092915050565b61106682610c4b565b67ffffffffffffffff81111561107f5761107e61096f565b5b6110898254610e90565b611094828285610fd4565b5f60209050601f8311600181146110c5575f84156110b3578287015190505b6110bd8582611042565b865550611124565b601f1984166110d386610ec0565b5f5b828110156110fa578489015182556001820191506020850194506020810190506110d5565b868310156111175784890151611113601f891682611026565b8355505b6001600288020188555050505b505050505050565b7f4c616e6420646f65736e277420657869737400000000000000000000000000005f82015250565b5f611160601283610c55565b915061116b8261112c565b602082019050919050565b5f6020820190508181035f83015261118d81611154565b9050919050565b7f4c616e64206973206672656500000000000000000000000000000000000000005f82015250565b5f6111c8600c83610c55565b91506111d382611194565b602082019050919050565b5f6020820190508181035f8301526111f5816111bc565b9050919050565b7f4c616e64206973206f776e6564000000000000000000000000000000000000005f82015250565b5f611230600d83610c55565b915061123b826111fc565b602082019050919050565b5f6020820190508181035f83015261125d81611224565b9050919050565b5f61126e82610a93565b915061127983610a93565b925082820261128781610a93565b9150828204841483151761129e5761129d610def565b5b5092915050565b7f4e6f7420656e6f756768206d6f6e65792c20636f6d65206261636b206c6174655f8201527f7200000000000000000000000000000000000000000000000000000000000000602082015250565b5f6112ff602183610c55565b915061130a826112a5565b604082019050919050565b5f6020820190508181035f83015261132c816112f3565b9050919050565b5f61133d82610a93565b915061134883610a93565b92508282019050808211156113605761135f610def565b5b9291505056fea2646970667358221220372cac33473c9cb68e4dc66ac66760bb5c50a47534070a5d026c800dace4641764736f6c63430008150033",
			"opcodes": "PUSH1 0x80 PUSH1 0x40 MSTORE PUSH0 PUSH1 0x4 SSTORE CALLVALUE DUP1 ISZERO PUSH2 0x13 JUMPI PUSH0 DUP1 REVERT JUMPDEST POP CALLER PUSH0 DUP1 PUSH2 0x100 EXP DUP2 SLOAD DUP2 PUSH20 0xFFFFFFFFFFFFFFFFFFFFFFFFFFFFFFFFFFFFFFFF MUL NOT AND SWAP1 DUP4 PUSH20 0xFFFFFFFFFFFFFFFFFFFFFFFFFFFFFFFFFFFFFFFF AND MUL OR SWAP1 SSTORE POP PUSH2 0x139C DUP1 PUSH2 0x60 PUSH0 CODECOPY PUSH0 RETURN INVALID PUSH1 0x80 PUSH1 0x40 MSTORE PUSH1 0x4 CALLDATASIZE LT PUSH2 0x58 JUMPI PUSH0 CALLDATALOAD PUSH1 0xE0 SHR DUP1 PUSH4 0x775FF56 EQ PUSH2 0x63 JUMPI DUP1 PUSH4 0x3226B432 EQ PUSH2 0x8B JUMPI DUP1 PUSH4 0x88CFA590 EQ PUSH2 0xB3 JUMPI DUP1 PUSH4 0xC1CFB99A EQ PUSH2 0xCF JUMPI DUP1 PUSH4 0xEC4A503A EQ PUSH2 0xF9 JUMPI DUP1 PUSH4 0xEFE0FB2E EQ PUSH2 0x123 JUMPI PUSH2 0x5F JUMP JUMPDEST CALLDATASIZE PUSH2 0x5F JUMPI STOP JUMPDEST PUSH0 DUP1 REVERT JUMPDEST CALLVALUE DUP1 ISZERO PUSH2 0x6E JUMPI PUSH0 DUP1 REVERT JUMPDEST POP PUSH2 0x89 PUSH1 0x4 DUP1 CALLDATASIZE SUB DUP2 ADD SWAP1 PUSH2 0x84 SWAP2 SWAP1 PUSH2 0xAC6 JUMP JUMPDEST PUSH2 0x167 JUMP JUMPDEST STOP JUMPDEST CALLVALUE DUP1 ISZERO PUSH2 0x96 JUMPI PUSH0 DUP1 REVERT JUMPDEST POP PUSH2 0xB1 PUSH1 0x4 DUP1 CALLDATASIZE SUB DUP2 ADD SWAP1 PUSH2 0xAC SWAP2 SWAP1 PUSH2 0xB4E JUMP JUMPDEST PUSH2 0x3F4 JUMP JUMPDEST STOP JUMPDEST PUSH2 0xCD PUSH1 0x4 DUP1 CALLDATASIZE SUB DUP2 ADD SWAP1 PUSH2 0xC8 SWAP2 SWAP1 PUSH2 0xBD3 JUMP JUMPDEST PUSH2 0x507 JUMP JUMPDEST STOP JUMPDEST CALLVALUE DUP1 ISZERO PUSH2 0xDA JUMPI PUSH0 DUP1 REVERT JUMPDEST POP PUSH2 0xE3 PUSH2 0x798 JUMP JUMPDEST PUSH1 0x40 MLOAD PUSH2 0xF0 SWAP2 SWAP1 PUSH2 0xC32 JUMP JUMPDEST PUSH1 0x40 MLOAD DUP1 SWAP2 SUB SWAP1 RETURN JUMPDEST CALLVALUE DUP1 ISZERO PUSH2 0x104 JUMPI PUSH0 DUP1 REVERT JUMPDEST POP PUSH2 0x10D PUSH2 0x79F JUMP JUMPDEST PUSH1 0x40 MLOAD PUSH2 0x11A SWAP2 SWAP1 PUSH2 0xC32 JUMP JUMPDEST PUSH1 0x40 MLOAD DUP1 SWAP2 SUB SWAP1 RETURN JUMPDEST CALLVALUE DUP1 ISZERO PUSH2 0x12E JUMPI PUSH0 DUP1 REVERT JUMPDEST POP PUSH2 0x149 PUSH1 0x4 DUP1 CALLDATASIZE SUB DUP2 ADD SWAP1 PUSH2 0x144 SWAP2 SWAP1 PUSH2 0xB4E JUMP JUMPDEST PUSH2 0x7A5 JUMP JUMPDEST PUSH1 0x40 MLOAD PUSH2 0x15E SWAP10 SWAP9 SWAP8 SWAP7 SWAP6 SWAP5 SWAP4 SWAP3 SWAP2 SWAP1 PUSH2 0xCEE JUMP JUMPDEST PUSH1 0x40 MLOAD DUP1 SWAP2 SUB SWAP1 RETURN JUMPDEST PUSH0 DUP1 SLOAD SWAP1 PUSH2 0x100 EXP SWAP1 DIV PUSH20 0xFFFFFFFFFFFFFFFFFFFFFFFFFFFFFFFFFFFFFFFF AND PUSH20 0xFFFFFFFFFFFFFFFFFFFFFFFFFFFFFFFFFFFFFFFF AND CALLER PUSH20 0xFFFFFFFFFFFFFFFFFFFFFFFFFFFFFFFFFFFFFFFF AND EQ PUSH2 0x1F4 JUMPI PUSH1 0x40 MLOAD PUSH32 0x8C379A000000000000000000000000000000000000000000000000000000000 DUP2 MSTORE PUSH1 0x4 ADD PUSH2 0x1EB SWAP1 PUSH2 0xDD1 JUMP JUMPDEST PUSH1 0x40 MLOAD DUP1 SWAP2 SUB SWAP1 REVERT JUMPDEST PUSH0 PUSH20 0xFFFFFFFFFFFFFFFFFFFFFFFFFFFFFFFFFFFFFFFF AND CALLER PUSH20 0xFFFFFFFFFFFFFFFFFFFFFFFFFFFFFFFFFFFFFFFF AND SUB PUSH2 0x22B JUMPI PUSH0 DUP1 REVERT JUMPDEST PUSH1 0x4 PUSH0 DUP2 SLOAD DUP1 SWAP3 SWAP2 SWAP1 PUSH2 0x23D SWAP1 PUSH2 0xE1C JUMP JUMPDEST SWAP2 SWAP1 POP SSTORE POP PUSH1 0x1 PUSH1 0x3 PUSH0 PUSH2 0x100 EXP DUP2 SLOAD DUP2 PUSH1 0xFF MUL NOT AND SWAP1 DUP4 ISZERO ISZERO MUL OR SWAP1 SSTORE POP PUSH1 0x40 MLOAD DUP1 PUSH2 0x120 ADD PUSH1 0x40 MSTORE DUP1 PUSH1 0x4 SLOAD DUP2 MSTORE PUSH1 0x20 ADD DUP5 DUP2 MSTORE PUSH1 0x20 ADD DUP4 DUP2 MSTORE PUSH1 0x20 ADD DUP3 DUP2 MSTORE PUSH1 0x20 ADD PUSH0 DUP2 MSTORE PUSH1 0x20 ADD PUSH0 DUP2 MSTORE PUSH1 0x20 ADD PUSH1 0x3 PUSH0 SWAP1 SLOAD SWAP1 PUSH2 0x100 EXP SWAP1 DIV PUSH1 0xFF AND ISZERO ISZERO DUP2 MSTORE PUSH1 0x20 ADD CALLER PUSH20 0xFFFFFFFFFFFFFFFFFFFFFFFFFFFFFFFFFFFFFFFF AND DUP2 MSTORE PUSH1 0x20 ADD PUSH0 PUSH20 0xFFFFFFFFFFFFFFFFFFFFFFFFFFFFFFFFFFFFFFFF AND DUP2 MSTORE POP PUSH1 0x1 PUSH0 PUSH1 0x4 SLOAD DUP2 MSTORE PUSH1 0x20 ADD SWAP1 DUP2 MSTORE PUSH1 0x20 ADD PUSH0 KECCAK256 PUSH0 DUP3 ADD MLOAD DUP2 PUSH0 ADD SSTORE PUSH1 0x20 DUP3 ADD MLOAD DUP2 PUSH1 0x1 ADD SWAP1 DUP2 PUSH2 0x30A SWAP2 SWAP1 PUSH2 0x105D JUMP JUMPDEST POP PUSH1 0x40 DUP3 ADD MLOAD DUP2 PUSH1 0x2 ADD SWAP1 DUP2 PUSH2 0x320 SWAP2 SWAP1 PUSH2 0x105D JUMP JUMPDEST POP PUSH1 0x60 DUP3 ADD MLOAD DUP2 PUSH1 0x3 ADD SSTORE PUSH1 0x80 DUP3 ADD MLOAD DUP2 PUSH1 0x4 ADD SSTORE PUSH1 0xA0 DUP3 ADD MLOAD DUP2 PUSH1 0x5 ADD SSTORE PUSH1 0xC0 DUP3 ADD MLOAD DUP2 PUSH1 0x6 ADD PUSH0 PUSH2 0x100 EXP DUP2 SLOAD DUP2 PUSH1 0xFF MUL NOT AND SWAP1 DUP4 ISZERO ISZERO MUL OR SWAP1 SSTORE POP PUSH1 0xE0 DUP3 ADD MLOAD DUP2 PUSH1 0x6 ADD PUSH1 0x1 PUSH2 0x100 EXP DUP2 SLOAD DUP2 PUSH20 0xFFFFFFFFFFFFFFFFFFFFFFFFFFFFFFFFFFFFFFFF MUL NOT AND SWAP1 DUP4 PUSH20 0xFFFFFFFFFFFFFFFFFFFFFFFFFFFFFFFFFFFFFFFF AND MUL OR SWAP1 SSTORE POP PUSH2 0x100 DUP3 ADD MLOAD DUP2 PUSH1 0x7 ADD PUSH0 PUSH2 0x100 EXP DUP2 SLOAD DUP2 PUSH20 0xFFFFFFFFFFFFFFFFFFFFFFFFFFFFFFFFFFFFFFFF MUL NOT AND SWAP1 DUP4 PUSH20 0xFFFFFFFFFFFFFFFFFFFFFFFFFFFFFFFFFFFFFFFF AND MUL OR SWAP1 SSTORE POP SWAP1 POP POP POP POP POP JUMP JUMPDEST DUP1 DUP1 PUSH1 0x4 SLOAD LT ISZERO PUSH2 0x43A JUMPI PUSH1 0x40 MLOAD PUSH32 0x8C379A000000000000000000000000000000000000000000000000000000000 DUP2 MSTORE PUSH1 0x4 ADD PUSH2 0x431 SWAP1 PUSH2 0x1176 JUMP JUMPDEST PUSH1 0x40 MLOAD DUP1 SWAP2 SUB SWAP1 REVERT JUMPDEST DUP2 PUSH0 ISZERO ISZERO PUSH1 0x1 PUSH0 DUP4 DUP2 MSTORE PUSH1 0x20 ADD SWAP1 DUP2 MSTORE PUSH1 0x20 ADD PUSH0 KECCAK256 PUSH1 0x6 ADD PUSH0 SWAP1 SLOAD SWAP1 PUSH2 0x100 EXP SWAP1 DIV PUSH1 0xFF AND ISZERO ISZERO EQ PUSH2 0x4A1 JUMPI PUSH1 0x40 MLOAD PUSH32 0x8C379A000000000000000000000000000000000000000000000000000000000 DUP2 MSTORE PUSH1 0x4 ADD PUSH2 0x498 SWAP1 PUSH2 0x11DE JUMP JUMPDEST PUSH1 0x40 MLOAD DUP1 SWAP2 SUB SWAP1 REVERT JUMPDEST PUSH1 0x1 PUSH0 DUP5 DUP2 MSTORE PUSH1 0x20 ADD SWAP1 DUP2 MSTORE PUSH1 0x20 ADD PUSH0 KECCAK256 PUSH1 0x5 ADD SLOAD TIMESTAMP GT ISZERO PUSH2 0x502 JUMPI PUSH1 0x1 DUP1 PUSH0 DUP6 DUP2 MSTORE PUSH1 0x20 ADD SWAP1 DUP2 MSTORE PUSH1 0x20 ADD PUSH0 KECCAK256 PUSH1 0x6 ADD PUSH0 PUSH2 0x100 EXP DUP2 SLOAD DUP2 PUSH1 0xFF MUL NOT AND SWAP1 DUP4 ISZERO ISZERO MUL OR SWAP1 SSTORE POP PUSH0 PUSH1 0x1 PUSH0 DUP6 DUP2 MSTORE PUSH1 0x20 ADD SWAP1 DUP2 MSTORE PUSH1 0x20 ADD PUSH0 KECCAK256 PUSH1 0x5 ADD DUP2 SWAP1 SSTORE POP JUMPDEST POP POP POP JUMP JUMPDEST DUP2 DUP1 PUSH1 0x4 SLOAD LT ISZERO PUSH2 0x54D JUMPI PUSH1 0x40 MLOAD PUSH32 0x8C379A000000000000000000000000000000000000000000000000000000000 DUP2 MSTORE PUSH1 0x4 ADD PUSH2 0x544 SWAP1 PUSH2 0x1176 JUMP JUMPDEST PUSH1 0x40 MLOAD DUP1 SWAP2 SUB SWAP1 REVERT JUMPDEST DUP3 PUSH1 0x1 ISZERO ISZERO PUSH1 0x1 PUSH0 DUP4 DUP2 MSTORE PUSH1 0x20 ADD SWAP1 DUP2 MSTORE PUSH1 0x20 ADD PUSH0 KECCAK256 PUSH1 0x6 ADD PUSH0 SWAP1 SLOAD SWAP1 PUSH2 0x100 EXP SWAP1 DIV PUSH1 0xFF AND ISZERO ISZERO EQ PUSH2 0x5B5 JUMPI PUSH1 0x40 MLOAD PUSH32 0x8C379A000000000000000000000000000000000000000000000000000000000 DUP2 MSTORE PUSH1 0x4 ADD PUSH2 0x5AC SWAP1 PUSH2 0x1246 JUMP JUMPDEST PUSH1 0x40 MLOAD DUP1 SWAP2 SUB SWAP1 REVERT JUMPDEST DUP4 DUP4 DUP1 PUSH1 0x1 PUSH0 DUP5 DUP2 MSTORE PUSH1 0x20 ADD SWAP1 DUP2 MSTORE PUSH1 0x20 ADD PUSH0 KECCAK256 PUSH1 0x3 ADD SLOAD PUSH2 0x5D7 SWAP2 SWAP1 PUSH2 0x1264 JUMP JUMPDEST SELFBALANCE LT ISZERO PUSH2 0x619 JUMPI PUSH1 0x40 MLOAD PUSH32 0x8C379A000000000000000000000000000000000000000000000000000000000 DUP2 MSTORE PUSH1 0x4 ADD PUSH2 0x610 SWAP1 PUSH2 0x1315 JUMP JUMPDEST PUSH1 0x40 MLOAD DUP1 SWAP2 SUB SWAP1 REVERT JUMPDEST PUSH0 PUSH20 0xFFFFFFFFFFFFFFFFFFFFFFFFFFFFFFFFFFFFFFFF AND CALLER PUSH20 0xFFFFFFFFFFFFFFFFFFFFFFFFFFFFFFFFFFFFFFFF AND SUB PUSH2 0x650 JUMPI PUSH0 DUP1 REVERT JUMPDEST PUSH0 PUSH1 0x1 PUSH0 DUP9 DUP2 MSTORE PUSH1 0x20 ADD SWAP1 DUP2 MSTORE PUSH1 0x20 ADD PUSH0 KECCAK256 PUSH1 0x6 ADD PUSH0 PUSH2 0x100 EXP DUP2 SLOAD DUP2 PUSH1 0xFF MUL NOT AND SWAP1 DUP4 ISZERO ISZERO MUL OR SWAP1 SSTORE POP TIMESTAMP PUSH1 0x1 PUSH0 DUP9 DUP2 MSTORE PUSH1 0x20 ADD SWAP1 DUP2 MSTORE PUSH1 0x20 ADD PUSH0 KECCAK256 PUSH1 0x4 ADD DUP2 SWAP1 SSTORE POP PUSH3 0x15180 DUP6 PUSH2 0x6A3 SWAP2 SWAP1 PUSH2 0x1264 JUMP JUMPDEST PUSH1 0x1 PUSH0 DUP9 DUP2 MSTORE PUSH1 0x20 ADD SWAP1 DUP2 MSTORE PUSH1 0x20 ADD PUSH0 KECCAK256 PUSH1 0x4 ADD SLOAD PUSH2 0x6C2 SWAP2 SWAP1 PUSH2 0x1333 JUMP JUMPDEST PUSH1 0x1 PUSH0 DUP9 DUP2 MSTORE PUSH1 0x20 ADD SWAP1 DUP2 MSTORE PUSH1 0x20 ADD PUSH0 KECCAK256 PUSH1 0x5 ADD DUP2 SWAP1 SSTORE POP DUP7 PUSH1 0x1 PUSH0 DUP9 DUP2 MSTORE PUSH1 0x20 ADD SWAP1 DUP2 MSTORE PUSH1 0x20 ADD PUSH0 KECCAK256 PUSH1 0x7 ADD PUSH0 PUSH2 0x100 EXP DUP2 SLOAD DUP2 PUSH20 0xFFFFFFFFFFFFFFFFFFFFFFFFFFFFFFFFFFFFFFFF MUL NOT AND SWAP1 DUP4 PUSH20 0xFFFFFFFFFFFFFFFFFFFFFFFFFFFFFFFFFFFFFFFF AND MUL OR SWAP1 SSTORE POP DUP7 PUSH20 0xFFFFFFFFFFFFFFFFFFFFFFFFFFFFFFFFFFFFFFFF AND PUSH2 0x8FC DUP7 PUSH1 0x1 PUSH0 DUP11 DUP2 MSTORE PUSH1 0x20 ADD SWAP1 DUP2 MSTORE PUSH1 0x20 ADD PUSH0 KECCAK256 PUSH1 0x3 ADD SLOAD PUSH2 0x766 SWAP2 SWAP1 PUSH2 0x1264 JUMP JUMPDEST SWAP1 DUP2 ISZERO MUL SWAP1 PUSH1 0x40 MLOAD PUSH0 PUSH1 0x40 MLOAD DUP1 DUP4 SUB DUP2 DUP6 DUP9 DUP9 CALL SWAP4 POP POP POP POP ISZERO DUP1 ISZERO PUSH2 0x78E JUMPI RETURNDATASIZE PUSH0 DUP1 RETURNDATACOPY RETURNDATASIZE PUSH0 REVERT JUMPDEST POP POP POP POP POP POP POP POP JUMP JUMPDEST PUSH0 SELFBALANCE SWAP1 POP SWAP1 JUMP JUMPDEST PUSH1 0x4 SLOAD DUP2 JUMP JUMPDEST PUSH1 0x1 PUSH1 0x20 MSTORE DUP1 PUSH0 MSTORE PUSH1 0x40 PUSH0 KECCAK256 PUSH0 SWAP2 POP SWAP1 POP DUP1 PUSH0 ADD SLOAD SWAP1 DUP1 PUSH1 0x1 ADD DUP1 SLOAD PUSH2 0x7CA SWAP1 PUSH2 0xE90 JUMP JUMPDEST DUP1 PUSH1 0x1F ADD PUSH1 0x20 DUP1 SWAP2 DIV MUL PUSH1 0x20 ADD PUSH1 0x40 MLOAD SWAP1 DUP2 ADD PUSH1 0x40 MSTORE DUP1 SWAP3 SWAP2 SWAP1 DUP2 DUP2 MSTORE PUSH1 0x20 ADD DUP3 DUP1 SLOAD PUSH2 0x7F6 SWAP1 PUSH2 0xE90 JUMP JUMPDEST DUP1 ISZERO PUSH2 0x841 JUMPI DUP1 PUSH1 0x1F LT PUSH2 0x818 JUMPI PUSH2 0x100 DUP1 DUP4 SLOAD DIV MUL DUP4 MSTORE SWAP2 PUSH1 0x20 ADD SWAP2 PUSH2 0x841 JUMP JUMPDEST DUP3 ADD SWAP2 SWAP1 PUSH0 MSTORE PUSH1 0x20 PUSH0 KECCAK256 SWAP1 JUMPDEST DUP2 SLOAD DUP2 MSTORE SWAP1 PUSH1 0x1 ADD SWAP1 PUSH1 0x20 ADD DUP1 DUP4 GT PUSH2 0x824 JUMPI DUP3 SWAP1 SUB PUSH1 0x1F AND DUP3 ADD SWAP2 JUMPDEST POP POP POP POP POP SWAP1 DUP1 PUSH1 0x2 ADD DUP1 SLOAD PUSH2 0x856 SWAP1 PUSH2 0xE90 JUMP JUMPDEST DUP1 PUSH1 0x1F ADD PUSH1 0x20 DUP1 SWAP2 DIV MUL PUSH1 0x20 ADD PUSH1 0x40 MLOAD SWAP1 DUP2 ADD PUSH1 0x40 MSTORE DUP1 SWAP3 SWAP2 SWAP1 DUP2 DUP2 MSTORE PUSH1 0x20 ADD DUP3 DUP1 SLOAD PUSH2 0x882 SWAP1 PUSH2 0xE90 JUMP JUMPDEST DUP1 ISZERO PUSH2 0x8CD JUMPI DUP1 PUSH1 0x1F LT PUSH2 0x8A4 JUMPI PUSH2 0x100 DUP1 DUP4 SLOAD DIV MUL DUP4 MSTORE SWAP2 PUSH1 0x20 ADD SWAP2 PUSH2 0x8CD JUMP JUMPDEST DUP3 ADD SWAP2 SWAP1 PUSH0 MSTORE PUSH1 0x20 PUSH0 KECCAK256 SWAP1 JUMPDEST DUP2 SLOAD DUP2 MSTORE SWAP1 PUSH1 0x1 ADD SWAP1 PUSH1 0x20 ADD DUP1 DUP4 GT PUSH2 0x8B0 JUMPI DUP3 SWAP1 SUB PUSH1 0x1F AND DUP3 ADD SWAP2 JUMPDEST POP POP POP POP POP SWAP1 DUP1 PUSH1 0x3 ADD SLOAD SWAP1 DUP1 PUSH1 0x4 ADD SLOAD SWAP1 DUP1 PUSH1 0x5 ADD SLOAD SWAP1 DUP1 PUSH1 0x6 ADD PUSH0 SWAP1 SLOAD SWAP1 PUSH2 0x100 EXP SWAP1 DIV PUSH1 0xFF AND SWAP1 DUP1 PUSH1 0x6 ADD PUSH1 0x1 SWAP1 SLOAD SWAP1 PUSH2 0x100 EXP SWAP1 DIV PUSH20 0xFFFFFFFFFFFFFFFFFFFFFFFFFFFFFFFFFFFFFFFF AND SWAP1 DUP1 PUSH1 0x7 ADD PUSH0 SWAP1 SLOAD SWAP1 PUSH2 0x100 EXP SWAP1 DIV PUSH20 0xFFFFFFFFFFFFFFFFFFFFFFFFFFFFFFFFFFFFFFFF AND SWAP1 POP DUP10 JUMP JUMPDEST PUSH0 PUSH1 0x40 MLOAD SWAP1 POP SWAP1 JUMP JUMPDEST PUSH0 DUP1 REVERT JUMPDEST PUSH0 DUP1 REVERT JUMPDEST PUSH0 DUP1 REVERT JUMPDEST PUSH0 DUP1 REVERT JUMPDEST PUSH0 PUSH1 0x1F NOT PUSH1 0x1F DUP4 ADD AND SWAP1 POP SWAP2 SWAP1 POP JUMP JUMPDEST PUSH32 0x4E487B7100000000000000000000000000000000000000000000000000000000 PUSH0 MSTORE PUSH1 0x41 PUSH1 0x4 MSTORE PUSH1 0x24 PUSH0 REVERT JUMPDEST PUSH2 0x9A5 DUP3 PUSH2 0x95F JUMP JUMPDEST DUP2 ADD DUP2 DUP2 LT PUSH8 0xFFFFFFFFFFFFFFFF DUP3 GT OR ISZERO PUSH2 0x9C4 JUMPI PUSH2 0x9C3 PUSH2 0x96F JUMP JUMPDEST JUMPDEST DUP1 PUSH1 0x40 MSTORE POP POP POP JUMP JUMPDEST PUSH0 PUSH2 0x9D6 PUSH2 0x946 JUMP JUMPDEST SWAP1 POP PUSH2 0x9E2 DUP3 DUP3 PUSH2 0x99C JUMP JUMPDEST SWAP2 SWAP1 POP JUMP JUMPDEST PUSH0 PUSH8 0xFFFFFFFFFFFFFFFF DUP3 GT ISZERO PUSH2 0xA01 JUMPI PUSH2 0xA00 PUSH2 0x96F JUMP JUMPDEST JUMPDEST PUSH2 0xA0A DUP3 PUSH2 0x95F JUMP JUMPDEST SWAP1 POP PUSH1 0x20 DUP2 ADD SWAP1 POP SWAP2 SWAP1 POP JUMP JUMPDEST DUP3 DUP2 DUP4 CALLDATACOPY PUSH0 DUP4 DUP4 ADD MSTORE POP POP POP JUMP JUMPDEST PUSH0 PUSH2 0xA37 PUSH2 0xA32 DUP5 PUSH2 0x9E7 JUMP JUMPDEST PUSH2 0x9CD JUMP JUMPDEST SWAP1 POP DUP3 DUP2 MSTORE PUSH1 0x20 DUP2 ADD DUP5 DUP5 DUP5 ADD GT ISZERO PUSH2 0xA53 JUMPI PUSH2 0xA52 PUSH2 0x95B JUMP JUMPDEST JUMPDEST PUSH2 0xA5E DUP5 DUP3 DUP6 PUSH2 0xA17 JUMP JUMPDEST POP SWAP4 SWAP3 POP POP POP JUMP JUMPDEST PUSH0 DUP3 PUSH1 0x1F DUP4 ADD SLT PUSH2 0xA7A JUMPI PUSH2 0xA79 PUSH2 0x957 JUMP JUMPDEST JUMPDEST DUP2 CALLDATALOAD PUSH2 0xA8A DUP5 DUP3 PUSH1 0x20 DUP7 ADD PUSH2 0xA25 JUMP JUMPDEST SWAP2 POP POP SWAP3 SWAP2 POP POP JUMP JUMPDEST PUSH0 DUP2 SWAP1 POP SWAP2 SWAP1 POP JUMP JUMPDEST PUSH2 0xAA5 DUP2 PUSH2 0xA93 JUMP JUMPDEST DUP2 EQ PUSH2 0xAAF JUMPI PUSH0 DUP1 REVERT JUMPDEST POP JUMP JUMPDEST PUSH0 DUP2 CALLDATALOAD SWAP1 POP PUSH2 0xAC0 DUP2 PUSH2 0xA9C JUMP JUMPDEST SWAP3 SWAP2 POP POP JUMP JUMPDEST PUSH0 DUP1 PUSH0 PUSH1 0x60 DUP5 DUP7 SUB SLT ISZERO PUSH2 0xADD JUMPI PUSH2 0xADC PUSH2 0x94F JUMP JUMPDEST JUMPDEST PUSH0 DUP5 ADD CALLDATALOAD PUSH8 0xFFFFFFFFFFFFFFFF DUP2 GT ISZERO PUSH2 0xAFA JUMPI PUSH2 0xAF9 PUSH2 0x953 JUMP JUMPDEST JUMPDEST PUSH2 0xB06 DUP7 DUP3 DUP8 ADD PUSH2 0xA66 JUMP JUMPDEST SWAP4 POP POP PUSH1 0x20 DUP5 ADD CALLDATALOAD PUSH8 0xFFFFFFFFFFFFFFFF DUP2 GT ISZERO PUSH2 0xB27 JUMPI PUSH2 0xB26 PUSH2 0x953 JUMP JUMPDEST JUMPDEST PUSH2 0xB33 DUP7 DUP3 DUP8 ADD PUSH2 0xA66 JUMP JUMPDEST SWAP3 POP POP PUSH1 0x40 PUSH2 0xB44 DUP7 DUP3 DUP8 ADD PUSH2 0xAB2 JUMP JUMPDEST SWAP2 POP POP SWAP3 POP SWAP3 POP SWAP3 JUMP JUMPDEST PUSH0 PUSH1 0x20 DUP3 DUP5 SUB SLT ISZERO PUSH2 0xB63 JUMPI PUSH2 0xB62 PUSH2 0x94F JUMP JUMPDEST JUMPDEST PUSH0 PUSH2 0xB70 DUP5 DUP3 DUP6 ADD PUSH2 0xAB2 JUMP JUMPDEST SWAP2 POP POP SWAP3 SWAP2 POP POP JUMP JUMPDEST PUSH0 PUSH20 0xFFFFFFFFFFFFFFFFFFFFFFFFFFFFFFFFFFFFFFFF DUP3 AND SWAP1 POP SWAP2 SWAP1 POP JUMP JUMPDEST PUSH0 PUSH2 0xBA2 DUP3 PUSH2 0xB79 JUMP JUMPDEST SWAP1 POP SWAP2 SWAP1 POP JUMP JUMPDEST PUSH2 0xBB2 DUP2 PUSH2 0xB98 JUMP JUMPDEST DUP2 EQ PUSH2 0xBBC JUMPI PUSH0 DUP1 REVERT JUMPDEST POP JUMP JUMPDEST PUSH0 DUP2 CALLDATALOAD SWAP1 POP PUSH2 0xBCD DUP2 PUSH2 0xBA9 JUMP JUMPDEST SWAP3 SWAP2 POP POP JUMP JUMPDEST PUSH0 DUP1 PUSH0 PUSH1 0x60 DUP5 DUP7 SUB SLT ISZERO PUSH2 0xBEA JUMPI PUSH2 0xBE9 PUSH2 0x94F JUMP JUMPDEST JUMPDEST PUSH0 PUSH2 0xBF7 DUP7 DUP3 DUP8 ADD PUSH2 0xBBF JUMP JUMPDEST SWAP4 POP POP PUSH1 0x20 PUSH2 0xC08 DUP7 DUP3 DUP8 ADD PUSH2 0xAB2 JUMP JUMPDEST SWAP3 POP POP PUSH1 0x40 PUSH2 0xC19 DUP7 DUP3 DUP8 ADD PUSH2 0xAB2 JUMP JUMPDEST SWAP2 POP POP SWAP3 POP SWAP3 POP SWAP3 JUMP JUMPDEST PUSH2 0xC2C DUP2 PUSH2 0xA93 JUMP JUMPDEST DUP3 MSTORE POP POP JUMP JUMPDEST PUSH0 PUSH1 0x20 DUP3 ADD SWAP1 POP PUSH2 0xC45 PUSH0 DUP4 ADD DUP5 PUSH2 0xC23 JUMP JUMPDEST SWAP3 SWAP2 POP POP JUMP JUMPDEST PUSH0 DUP2 MLOAD SWAP1 POP SWAP2 SWAP1 POP JUMP JUMPDEST PUSH0 DUP3 DUP3 MSTORE PUSH1 0x20 DUP3 ADD SWAP1 POP SWAP3 SWAP2 POP POP JUMP JUMPDEST PUSH0 JUMPDEST DUP4 DUP2 LT ISZERO PUSH2 0xC82 JUMPI DUP1 DUP3 ADD MLOAD DUP2 DUP5 ADD MSTORE PUSH1 0x20 DUP2 ADD SWAP1 POP PUSH2 0xC67 JUMP JUMPDEST PUSH0 DUP5 DUP5 ADD MSTORE POP POP POP POP JUMP JUMPDEST PUSH0 PUSH2 0xC97 DUP3 PUSH2 0xC4B JUMP JUMPDEST PUSH2 0xCA1 DUP2 DUP6 PUSH2 0xC55 JUMP JUMPDEST SWAP4 POP PUSH2 0xCB1 DUP2 DUP6 PUSH1 0x20 DUP7 ADD PUSH2 0xC65 JUMP JUMPDEST PUSH2 0xCBA DUP2 PUSH2 0x95F JUMP JUMPDEST DUP5 ADD SWAP2 POP POP SWAP3 SWAP2 POP POP JUMP JUMPDEST PUSH0 DUP2 ISZERO ISZERO SWAP1 POP SWAP2 SWAP1 POP JUMP JUMPDEST PUSH2 0xCD9 DUP2 PUSH2 0xCC5 JUMP JUMPDEST DUP3 MSTORE POP POP JUMP JUMPDEST PUSH2 0xCE8 DUP2 PUSH2 0xB98 JUMP JUMPDEST DUP3 MSTORE POP POP JUMP JUMPDEST PUSH0 PUSH2 0x120 DUP3 ADD SWAP1 POP PUSH2 0xD02 PUSH0 DUP4 ADD DUP13 PUSH2 0xC23 JUMP JUMPDEST DUP2 DUP2 SUB PUSH1 0x20 DUP4 ADD MSTORE PUSH2 0xD14 DUP2 DUP12 PUSH2 0xC8D JUMP JUMPDEST SWAP1 POP DUP2 DUP2 SUB PUSH1 0x40 DUP4 ADD MSTORE PUSH2 0xD28 DUP2 DUP11 PUSH2 0xC8D JUMP JUMPDEST SWAP1 POP PUSH2 0xD37 PUSH1 0x60 DUP4 ADD DUP10 PUSH2 0xC23 JUMP JUMPDEST PUSH2 0xD44 PUSH1 0x80 DUP4 ADD DUP9 PUSH2 0xC23 JUMP JUMPDEST PUSH2 0xD51 PUSH1 0xA0 DUP4 ADD DUP8 PUSH2 0xC23 JUMP JUMPDEST PUSH2 0xD5E PUSH1 0xC0 DUP4 ADD DUP7 PUSH2 0xCD0 JUMP JUMPDEST PUSH2 0xD6B PUSH1 0xE0 DUP4 ADD DUP6 PUSH2 0xCDF JUMP JUMPDEST PUSH2 0xD79 PUSH2 0x100 DUP4 ADD DUP5 PUSH2 0xCDF JUMP JUMPDEST SWAP11 SWAP10 POP POP POP POP POP POP POP POP POP POP JUMP JUMPDEST PUSH32 0x4F6E6C79206F776E65722063616E206163636573732069740000000000000000 PUSH0 DUP3 ADD MSTORE POP JUMP JUMPDEST PUSH0 PUSH2 0xDBB PUSH1 0x18 DUP4 PUSH2 0xC55 JUMP JUMPDEST SWAP2 POP PUSH2 0xDC6 DUP3 PUSH2 0xD87 JUMP JUMPDEST PUSH1 0x20 DUP3 ADD SWAP1 POP SWAP2 SWAP1 POP JUMP JUMPDEST PUSH0 PUSH1 0x20 DUP3 ADD SWAP1 POP DUP2 DUP2 SUB PUSH0 DUP4 ADD MSTORE PUSH2 0xDE8 DUP2 PUSH2 0xDAF JUMP JUMPDEST SWAP1 POP SWAP2 SWAP1 POP JUMP JUMPDEST PUSH32 0x4E487B7100000000000000000000000000000000000000000000000000000000 PUSH0 MSTORE PUSH1 0x11 PUSH1 0x4 MSTORE PUSH1 0x24 PUSH0 REVERT JUMPDEST PUSH0 PUSH2 0xE26 DUP3 PUSH2 0xA93 JUMP JUMPDEST SWAP2 POP PUSH32 0xFFFFFFFFFFFFFFFFFFFFFFFFFFFFFFFFFFFFFFFFFFFFFFFFFFFFFFFFFFFFFFFF DUP3 SUB PUSH2 0xE58 JUMPI PUSH2 0xE57 PUSH2 0xDEF JUMP JUMPDEST JUMPDEST PUSH1 0x1 DUP3 ADD SWAP1 POP SWAP2 SWAP1 POP JUMP JUMPDEST PUSH32 0x4E487B7100000000000000000000000000000000000000000000000000000000 PUSH0 MSTORE PUSH1 0x22 PUSH1 0x4 MSTORE PUSH1 0x24 PUSH0 REVERT JUMPDEST PUSH0 PUSH1 0x2 DUP3 DIV SWAP1 POP PUSH1 0x1 DUP3 AND DUP1 PUSH2 0xEA7 JUMPI PUSH1 0x7F DUP3 AND SWAP2 POP JUMPDEST PUSH1 0x20 DUP3 LT DUP2 SUB PUSH2 0xEBA JUMPI PUSH2 0xEB9 PUSH2 0xE63 JUMP JUMPDEST JUMPDEST POP SWAP2 SWAP1 POP JUMP JUMPDEST PUSH0 DUP2 SWAP1 POP DUP2 PUSH0 MSTORE PUSH1 0x20 PUSH0 KECCAK256 SWAP1 POP SWAP2 SWAP1 POP JUMP JUMPDEST PUSH0 PUSH1 0x20 PUSH1 0x1F DUP4 ADD DIV SWAP1 POP SWAP2 SWAP1 POP JUMP JUMPDEST PUSH0 DUP3 DUP3 SHL SWAP1 POP SWAP3 SWAP2 POP POP JUMP JUMPDEST PUSH0 PUSH1 0x8 DUP4 MUL PUSH2 0xF1C PUSH32 0xFFFFFFFFFFFFFFFFFFFFFFFFFFFFFFFFFFFFFFFFFFFFFFFFFFFFFFFFFFFFFFFF DUP3 PUSH2 0xEE1 JUMP JUMPDEST PUSH2 0xF26 DUP7 DUP4 PUSH2 0xEE1 JUMP JUMPDEST SWAP6 POP DUP1 NOT DUP5 AND SWAP4 POP DUP1 DUP7 AND DUP5 OR SWAP3 POP POP POP SWAP4 SWAP3 POP POP POP JUMP JUMPDEST PUSH0 DUP2 SWAP1 POP SWAP2 SWAP1 POP JUMP JUMPDEST PUSH0 PUSH2 0xF61 PUSH2 0xF5C PUSH2 0xF57 DUP5 PUSH2 0xA93 JUMP JUMPDEST PUSH2 0xF3E JUMP JUMPDEST PUSH2 0xA93 JUMP JUMPDEST SWAP1 POP SWAP2 SWAP1 POP JUMP JUMPDEST PUSH0 DUP2 SWAP1 POP SWAP2 SWAP1 POP JUMP JUMPDEST PUSH2 0xF7A DUP4 PUSH2 0xF47 JUMP JUMPDEST PUSH2 0xF8E PUSH2 0xF86 DUP3 PUSH2 0xF68 JUMP JUMPDEST DUP5 DUP5 SLOAD PUSH2 0xEED JUMP JUMPDEST DUP3 SSTORE POP POP POP POP JUMP JUMPDEST PUSH0 SWAP1 JUMP JUMPDEST PUSH2 0xFA2 PUSH2 0xF96 JUMP JUMPDEST PUSH2 0xFAD DUP2 DUP5 DUP5 PUSH2 0xF71 JUMP JUMPDEST POP POP POP JUMP JUMPDEST JUMPDEST DUP2 DUP2 LT ISZERO PUSH2 0xFD0 JUMPI PUSH2 0xFC5 PUSH0 DUP3 PUSH2 0xF9A JUMP JUMPDEST PUSH1 0x1 DUP2 ADD SWAP1 POP PUSH2 0xFB3 JUMP JUMPDEST POP POP JUMP JUMPDEST PUSH1 0x1F DUP3 GT ISZERO PUSH2 0x1015 JUMPI PUSH2 0xFE6 DUP2 PUSH2 0xEC0 JUMP JUMPDEST PUSH2 0xFEF DUP5 PUSH2 0xED2 JUMP JUMPDEST DUP2 ADD PUSH1 0x20 DUP6 LT ISZERO PUSH2 0xFFE JUMPI DUP2 SWAP1 POP JUMPDEST PUSH2 0x1012 PUSH2 0x100A DUP6 PUSH2 0xED2 JUMP JUMPDEST DUP4 ADD DUP3 PUSH2 0xFB2 JUMP JUMPDEST POP POP JUMPDEST POP POP POP JUMP JUMPDEST PUSH0 DUP3 DUP3 SHR SWAP1 POP SWAP3 SWAP2 POP POP JUMP JUMPDEST PUSH0 PUSH2 0x1035 PUSH0 NOT DUP5 PUSH1 0x8 MUL PUSH2 0x101A JUMP JUMPDEST NOT DUP1 DUP4 AND SWAP2 POP POP SWAP3 SWAP2 POP POP JUMP JUMPDEST PUSH0 PUSH2 0x104D DUP4 DUP4 PUSH2 0x1026 JUMP JUMPDEST SWAP2 POP DUP3 PUSH1 0x2 MUL DUP3 OR SWAP1 POP SWAP3 SWAP2 POP POP JUMP JUMPDEST PUSH2 0x1066 DUP3 PUSH2 0xC4B JUMP JUMPDEST PUSH8 0xFFFFFFFFFFFFFFFF DUP2 GT ISZERO PUSH2 0x107F JUMPI PUSH2 0x107E PUSH2 0x96F JUMP JUMPDEST JUMPDEST PUSH2 0x1089 DUP3 SLOAD PUSH2 0xE90 JUMP JUMPDEST PUSH2 0x1094 DUP3 DUP3 DUP6 PUSH2 0xFD4 JUMP JUMPDEST PUSH0 PUSH1 0x20 SWAP1 POP PUSH1 0x1F DUP4 GT PUSH1 0x1 DUP2 EQ PUSH2 0x10C5 JUMPI PUSH0 DUP5 ISZERO PUSH2 0x10B3 JUMPI DUP3 DUP8 ADD MLOAD SWAP1 POP JUMPDEST PUSH2 0x10BD DUP6 DUP3 PUSH2 0x1042 JUMP JUMPDEST DUP7 SSTORE POP PUSH2 0x1124 JUMP JUMPDEST PUSH1 0x1F NOT DUP5 AND PUSH2 0x10D3 DUP7 PUSH2 0xEC0 JUMP JUMPDEST PUSH0 JUMPDEST DUP3 DUP2 LT ISZERO PUSH2 0x10FA JUMPI DUP5 DUP10 ADD MLOAD DUP3 SSTORE PUSH1 0x1 DUP3 ADD SWAP2 POP PUSH1 0x20 DUP6 ADD SWAP5 POP PUSH1 0x20 DUP2 ADD SWAP1 POP PUSH2 0x10D5 JUMP JUMPDEST DUP7 DUP4 LT ISZERO PUSH2 0x1117 JUMPI DUP5 DUP10 ADD MLOAD PUSH2 0x1113 PUSH1 0x1F DUP10 AND DUP3 PUSH2 0x1026 JUMP JUMPDEST DUP4 SSTORE POP JUMPDEST PUSH1 0x1 PUSH1 0x2 DUP9 MUL ADD DUP9 SSTORE POP POP POP JUMPDEST POP POP POP POP POP POP JUMP JUMPDEST PUSH32 0x4C616E6420646F65736E27742065786973740000000000000000000000000000 PUSH0 DUP3 ADD MSTORE POP JUMP JUMPDEST PUSH0 PUSH2 0x1160 PUSH1 0x12 DUP4 PUSH2 0xC55 JUMP JUMPDEST SWAP2 POP PUSH2 0x116B DUP3 PUSH2 0x112C JUMP JUMPDEST PUSH1 0x20 DUP3 ADD SWAP1 POP SWAP2 SWAP1 POP JUMP JUMPDEST PUSH0 PUSH1 0x20 DUP3 ADD SWAP1 POP DUP2 DUP2 SUB PUSH0 DUP4 ADD MSTORE PUSH2 0x118D DUP2 PUSH2 0x1154 JUMP JUMPDEST SWAP1 POP SWAP2 SWAP1 POP JUMP JUMPDEST PUSH32 0x4C616E6420697320667265650000000000000000000000000000000000000000 PUSH0 DUP3 ADD MSTORE POP JUMP JUMPDEST PUSH0 PUSH2 0x11C8 PUSH1 0xC DUP4 PUSH2 0xC55 JUMP JUMPDEST SWAP2 POP PUSH2 0x11D3 DUP3 PUSH2 0x1194 JUMP JUMPDEST PUSH1 0x20 DUP3 ADD SWAP1 POP SWAP2 SWAP1 POP JUMP JUMPDEST PUSH0 PUSH1 0x20 DUP3 ADD SWAP1 POP DUP2 DUP2 SUB PUSH0 DUP4 ADD MSTORE PUSH2 0x11F5 DUP2 PUSH2 0x11BC JUMP JUMPDEST SWAP1 POP SWAP2 SWAP1 POP JUMP JUMPDEST PUSH32 0x4C616E64206973206F776E656400000000000000000000000000000000000000 PUSH0 DUP3 ADD MSTORE POP JUMP JUMPDEST PUSH0 PUSH2 0x1230 PUSH1 0xD DUP4 PUSH2 0xC55 JUMP JUMPDEST SWAP2 POP PUSH2 0x123B DUP3 PUSH2 0x11FC JUMP JUMPDEST PUSH1 0x20 DUP3 ADD SWAP1 POP SWAP2 SWAP1 POP JUMP JUMPDEST PUSH0 PUSH1 0x20 DUP3 ADD SWAP1 POP DUP2 DUP2 SUB PUSH0 DUP4 ADD MSTORE PUSH2 0x125D DUP2 PUSH2 0x1224 JUMP JUMPDEST SWAP1 POP SWAP2 SWAP1 POP JUMP JUMPDEST PUSH0 PUSH2 0x126E DUP3 PUSH2 0xA93 JUMP JUMPDEST SWAP2 POP PUSH2 0x1279 DUP4 PUSH2 0xA93 JUMP JUMPDEST SWAP3 POP DUP3 DUP3 MUL PUSH2 0x1287 DUP2 PUSH2 0xA93 JUMP JUMPDEST SWAP2 POP DUP3 DUP3 DIV DUP5 EQ DUP4 ISZERO OR PUSH2 0x129E JUMPI PUSH2 0x129D PUSH2 0xDEF JUMP JUMPDEST JUMPDEST POP SWAP3 SWAP2 POP POP JUMP JUMPDEST PUSH32 0x4E6F7420656E6F756768206D6F6E65792C20636F6D65206261636B206C617465 PUSH0 DUP3 ADD MSTORE PUSH32 0x7200000000000000000000000000000000000000000000000000000000000000 PUSH1 0x20 DUP3 ADD MSTORE POP JUMP JUMPDEST PUSH0 PUSH2 0x12FF PUSH1 0x21 DUP4 PUSH2 0xC55 JUMP JUMPDEST SWAP2 POP PUSH2 0x130A DUP3 PUSH2 0x12A5 JUMP JUMPDEST PUSH1 0x40 DUP3 ADD SWAP1 POP SWAP2 SWAP1 POP JUMP JUMPDEST PUSH0 PUSH1 0x20 DUP3 ADD SWAP1 POP DUP2 DUP2 SUB PUSH0 DUP4 ADD MSTORE PUSH2 0x132C DUP2 PUSH2 0x12F3 JUMP JUMPDEST SWAP1 POP SWAP2 SWAP1 POP JUMP JUMPDEST PUSH0 PUSH2 0x133D DUP3 PUSH2 0xA93 JUMP JUMPDEST SWAP2 POP PUSH2 0x1348 DUP4 PUSH2 0xA93 JUMP JUMPDEST SWAP3 POP DUP3 DUP3 ADD SWAP1 POP DUP1 DUP3 GT ISZERO PUSH2 0x1360 JUMPI PUSH2 0x135F PUSH2 0xDEF JUMP JUMPDEST JUMPDEST SWAP3 SWAP2 POP POP JUMP INVALID LOG2 PUSH5 0x6970667358 0x22 SLT KECCAK256 CALLDATACOPY 0x2C 0xAC CALLER SELFBALANCE EXTCODECOPY SWAP13 0xB6 DUP15 0x4D 0xC6 PUSH11 0xC66760BB5C50A47534070A 0x5D MUL PUSH13 0x800DACE4641764736F6C634300 ADDMOD ISZERO STOP CALLER "
		},
		"gasEstimates": {
			"creation": {
				"codeDepositCost": "1004000",
				"executionCost": "30309",
				"totalCost": "1034309"
			},
			"external": {
				"LP(uint256)": "infinite",
				"addLP(string,string,uint256)": "infinite",
				"check_rent(uint256)": "36438",
				"get_balance()": "378",
				"land_pieces()": "2491",
				"rentLP(address,uint256,uint256)": "infinite"
			}
		},
		"methodIdentifiers": {
			"LP(uint256)": "efe0fb2e",
			"addLP(string,string,uint256)": "0775ff56",
			"check_rent(uint256)": "3226b432",
			"get_balance()": "c1cfb99a",
			"land_pieces()": "ec4a503a",
			"rentLP(address,uint256,uint256)": "88cfa590"
		}
	},
	"abi": [
		{
			"inputs": [],
			"stateMutability": "nonpayable",
			"type": "constructor"
		},
		{
			"inputs": [
				{
					"internalType": "uint256",
					"name": "",
					"type": "uint256"
				}
			],
			"name": "LP",
			"outputs": [
				{
					"internalType": "uint256",
					"name": "LPid",
					"type": "uint256"
				},
				{
					"internalType": "string",
					"name": "LPName",
					"type": "string"
				},
				{
					"internalType": "string",
					"name": "LPAddress",
					"type": "string"
				},
				{
					"internalType": "uint256",
					"name": "rpd",
					"type": "uint256"
				},
				{
					"internalType": "uint256",
					"name": "last_owned",
					"type": "uint256"
				},
				{
					"internalType": "uint256",
					"name": "owned_till",
					"type": "uint256"
				},
				{
					"internalType": "bool",
					"name": "isFree",
					"type": "bool"
				},
				{
					"internalType": "address payable",
					"name": "owner",
					"type": "address"
				},
				{
					"internalType": "address payable",
					"name": "holder",
					"type": "address"
				}
			],
			"stateMutability": "view",
			"type": "function"
		},
		{
			"inputs": [
				{
					"internalType": "string",
					"name": "lpname",
					"type": "string"
				},
				{
					"internalType": "string",
					"name": "lpaddress",
					"type": "string"
				},
				{
					"internalType": "uint256",
					"name": "lprent",
					"type": "uint256"
				}
			],
			"name": "addLP",
			"outputs": [],
			"stateMutability": "nonpayable",
			"type": "function"
		},
		{
			"inputs": [
				{
					"internalType": "uint256",
					"name": "land_num",
					"type": "uint256"
				}
			],
			"name": "check_rent",
			"outputs": [],
			"stateMutability": "nonpayable",
			"type": "function"
		},
		{
			"inputs": [],
			"name": "get_balance",
			"outputs": [
				{
					"internalType": "uint256",
					"name": "",
					"type": "uint256"
				}
			],
			"stateMutability": "view",
			"type": "function"
		},
		{
			"inputs": [],
			"name": "land_pieces",
			"outputs": [
				{
					"internalType": "uint256",
					"name": "",
					"type": "uint256"
				}
			],
			"stateMutability": "view",
			"type": "function"
		},
		{
			"inputs": [
				{
					"internalType": "address payable",
					"name": "future_holder",
					"type": "address"
				},
				{
					"internalType": "uint256",
					"name": "land_num",
					"type": "uint256"
				},
				{
					"internalType": "uint256",
					"name": "holding_days",
					"type": "uint256"
				}
			],
			"name": "rentLP",
			"outputs": [],
			"stateMutability": "payable",
			"type": "function"
		},
		{
			"stateMutability": "payable",
			"type": "receive"
		}
	]
}